:100000000C9462000C948A000C948A000C948A0070
:100010000C948A000C948A000C948A000C948A0038
:100020000C948A000C948A000C948A000C948A0028
:100030000C948A000C948A000C948A000C948A0018
:100040000C9491030C948A000C9401040C94DB032F
:100050000C948A000C948A000C948A000C948A00F8
:100060000C948A000C948A000000000024002700F1
:100070002A0000000000250028002B0000000000DE
:1000800023002600290004040404040404040202DA
:100090000202020203030303030301020408102007
:1000A0004080010204081020010204081020000012
:1000B0000008000201000003040700000000000027
:1000C0000000CF0511241FBECFEFD8E0DEBFCDBFAB
:1000D00022E0A6E6B1E001C01D92A431B207E1F72B
:1000E00011E0A0E0B1E0E0EFF0E102C005900D9278
:1000F000A636B107D9F710E0C2E6D0E004C02197D8
:10010000FE010E947E06C136D107C9F70E94330462
:100110000C9476080C940000833081F028F4813030
:1001200099F08230A9F008958730A9F08830C9F09D
:100130008430B1F4809180008F7D03C08091800075
:100140008F7780938000089584B58F7784BD08955C
:1001500084B58F7DFBCF8091B0008F778093B00006
:1001600008958091B0008F7DF9CFCF93DF93282F32
:1001700030E0F901E255FF4F8491F901E656FF4F57
:10018000D491F901EA57FF4FC491CC23A1F081111A
:100190000E948C00EC2FF0E0EE0FFF1FE458FF4FA1
:1001A000A591B491EC91ED2381E090E009F480E019
:1001B000DF91CF91089580E090E0FACF1F93CF9325
:1001C000DF93282F30E0F901E255FF4F8491F901C8
:1001D000E656FF4FD491F901EA57FF4FC491CC2363
:1001E000A9F0162F81110E948C00EC2FF0E0EE0F89
:1001F000FF1FEE58FF4FA591B4918FB7F894EC9183
:10020000111108C0D095DE23DC938FBFDF91CF9111
:100210001F910895DE2BF8CFCF93DF9390E0FC0180
:10022000E656FF4F24918A579F4FFC018491882303
:10023000D1F090E0880F991FFC01E859FF4FA5917C
:10024000B491FC01EE58FF4FC591D49161110EC0DD
:100250009FB7F8948C91E22FE0958E238C932881A0
:10026000E223E8839FBFDF91CF9108958FB7F89481
:10027000EC91E22BEC938FBFF6CF3FB7F8948091CF
:100280006F0190917001A0917101B091720126B53A
:10029000A89B05C02F3F19F00196A11DB11D3FBFBE
:1002A000BA2FA92F982F8827BC01CD01620F711D8D
:1002B000811D911D42E0660F771F881F991F4A9587
:1002C000D1F70895AF92BF92CF92DF92EF92FF9253
:1002D0000F931F93CF93DF936C017B018B01040F6E
:1002E000151FEB015E01AE18BF08C017D10759F00A
:1002F0006991D601ED91FC910190F081E02DC6014C
:100300000995892B79F7C501DF91CF911F910F9145
:10031000FF90EF90DF90CF90BF90AF900895FC01D9
:10032000538D448D252F30E0842F90E0821B930B5A
:10033000541710F0CF96089501970895FC01918D00
:10034000828D981761F0A28DAE0FBF2FB11D5D9603
:100350008C91928D9F5F9F73928F90E008958FEFA5
:100360009FEF0895FC01918D828D981731F0828D59
:10037000E80FF11D858D90E008958FEF9FEF0895B0
:10038000FC01918D228D892F90E0805C9F4F821B14
:1003900091098F739927089583E791E00E94C00126
:1003A00021E0892B09F420E0822F089580E090E07D
:1003B000892B29F00E94CC0181110C940000089532
:1003C000FC01A48DA80FB92FB11DA35ABF4F2C91CA
:1003D000848D90E001968F739927848FA689B789C1
:1003E0002C93A089B1898C91837080648C93938DB8
:1003F000848D981306C00288F389E02D80818F7D5B
:1004000080830895EF92FF920F931F93CF93DF9312
:10041000EC0181E0888F9B8D8C8D98131AC0E88940
:10042000F989808185FF15C09FB7F894EE89FF890F
:100430006083E889F98980818370806480839FBFAD
:1004400081E090E0DF91CF911F910F91FF90EF90AD
:100450000895F62E0B8D10E00F5F1F4F0F731127BD
:10046000E02E8C8D8E110CC00FB607FCFACFE889F8
:10047000F989808185FFF5CFCE010E94E001F1CF9F
:10048000EB8DEC0FFD2FF11DE35AFF4FF0829FB76C
:10049000F8940B8FEA89FB8980818062CFCFCF935C
:1004A000DF93EC01888D8823B9F0AA89BB89E8899C
:1004B000F9898C9185FD03C0808186FD0DC00FB642
:1004C00007FCF7CF8C9185FFF2CF808185FFEDCFC0
:1004D000CE010E94E001E9CFDF91CF91089542E083
:1004E00050E068E171E083E791E00C946201CF9302
:1004F000DF93FC01448155816081718183E791E044
:100500000E946201EC010E946F028C0F9D1FDF911F
:10051000CF910895FC0180819181009711F00C9496
:10052000200708950F931F93CF93DF93EC018881E9
:100530009981009759F02A813B812617370730F0BF
:1005400081E0DF91CF911F910F9108958B016F5F33
:100550007F4F0E94A907009759F0998388831B83D6
:100560000A832C813D81232B59F7FC011082E8CFAF
:1005700080E0E7CFEF92FF920F931F93CF93DF932B
:10058000EC01FB01E080F180E114F10411F1048140
:10059000158101151105A9F08C819D81080F191F86
:1005A000B801CE010E949202882399F028813981F6
:1005B0008C819D81B701820F931F0E946F081D835C
:1005C0000C83CE01DF91CF911F910F91FF90EF909F
:1005D000089588819981009711F00E94200719825F
:1005E00018821D821C821B821A82EBCFEF92FF922F
:1005F0000F931F93CF93DF93EC017B018A01BA0124
:100600000E94920228813981811114C0211531057F
:1006100019F0C9010E942007198218821D821C82CC
:100620001B821A82CE01DF91CF911F910F91FF9013
:10063000EF9008951D830C83B701C9010E946F08D4
:10064000F1CFEF92FF920F931F93CF93DF93CDB72C
:10065000DEB762970FB6F894DEBF0FBECDBF8C0138
:10066000CB01F8011182108213821282158214824A
:100670004AE09E012F5F3F4F7901B9010E94FC05BE
:10068000F70101900020E9F73197AF014E195F099A
:10069000B701C8010E94F60262960FB6F894DEBF59
:1006A0000FBECDBFDF91CF911F910F91FF90EF90C3
:1006B0000895FF920F931F93CF93DF93EC018B016B
:1006C000FB01F0800E943106F81621F06F2DCE015B
:1006D0000E943906F801F1802196CE010E94310670
:1006E000F81621F06F2DCE010E943906C801DF9166
:1006F000CF911F910F91FF9008950F931F93CF9368
:10070000DF938C01EB010E9431068883C8010196BA
:100710000E9431068983CE01DF91CF911F910F9105
:1007200008951F920F920FB60F9211242F933F93AB
:100730008F939F93AF93BF9380916B0190916C01C6
:10074000A0916D01B0916E0130916A0123E0230FF9
:100750002D3758F50196A11DB11D20936A01809394
:100760006B0190936C01A0936D01B0936E01809129
:100770006F0190917001A0917101B0917201019689
:10078000A11DB11D80936F0190937001A093710121
:10079000B0937201BF91AF919F918F913F912F9133
:1007A0000F900FBE0F901F90189526E8230F02960A
:1007B000A11DB11DD2CF1F920F920FB60F9211241F
:1007C0002F933F934F935F936F937F938F939F9359
:1007D000AF93BF93EF93FF9383E791E00E94E00113
:1007E000FF91EF91BF91AF919F918F917F916F9109
:1007F0005F914F913F912F910F900FBE0F901F90DF
:1008000018951F920F920FB60F9211242F938F936A
:100810009F93EF93FF93E0918301F0918401808196
:10082000E0918901F0918A0182FD1BC09081809145
:100830008C018F5F8F7320918D01821741F0E091C1
:100840008C01F0E0ED58FE4F958F80938C01FF9165
:10085000EF919F918F912F910F900FBE0F901F904E
:1008600018958081F4CFCF93DF93CDB7DEB72C9767
:100870000FB6F894DEBF0FBECDBF789484B582600A
:1008800084BD84B5816084BD85B5826085BD85B534
:10089000816085BD80916E00816080936E001092B2
:1008A000810080918100826080938100809181002D
:1008B00081608093810080918000816080938000BE
:1008C0008091B10084608093B1008091B00081601C
:1008D0008093B00080917A00846080937A00809148
:1008E0007A00826080937A0080917A0081608093A0
:1008F0007A0080917A00806880937A001092C1001B
:1009000068E671E090E080E00E947D0366E671E0B9
:1009100082E090E00E947D03E0918301F0918401E8
:1009200082E08083E0917F01F09180011082E0916C
:100930008101F09182018FEC808310928B01E09114
:100940008701F091880186E08083E0918501F09134
:100950008601808180618083E0918501F09186012C
:10096000808188608083E0918501F091860180819B
:1009700080688083E0918501F091860180818F7D80
:10098000808361E08DE00E940C0161E08CE00E94B8
:100990000C0161E08BE00E940C0161E08AE00E94A2
:1009A0000C0160E087E00E940C0160E084E00E949E
:1009B0000C0160E082E00E940C0100E010E08091F8
:1009C000680180FDE0C061E08DE00E94DE0060E033
:1009D0008CE00E94DE008091660180FDDAC061E05B
:1009E0008BE00E94DE0060E08AE00E94DE0087E08B
:1009F0000E94B500892BD9F180916801909169011D
:100A00000196909369018093680168E671E090E037
:100A100080E00E9459036091680170916901CE01E4
:100A200001960E94210318861F821A8619861C8649
:100A30001B8649E150E06BE171E0CE0107960E9410
:100A4000F602BE016F5F7F4FCE0107960E94BA0289
:100A50000E947702CE0107960E948A02CE0101967B
:100A60000E948A0287E00E94B500892BD9F784E0B2
:100A70000E94B500892BD9F18091660190916701A0
:100A80000196909367018093660166E671E082E0CB
:100A900090E00E9459036091660170916701CE0158
:100AA00001960E94210318861F821A8619861C86C9
:100AB0001B864AE150E065E371E0CE0107960E9493
:100AC000F602BE016F5F7F4FCE0107960E94BA0209
:100AD0000E947702CE0107960E948A02CE010196FB
:100AE0000E948A0284E00E94B500892BD9F782E037
:100AF0000E94B500892BB9F010926901109268012B
:100B0000109267011092660144E150E060E571E0E7
:100B100083E791E00E9462010E946F0282E00E94DE
:100B2000B500892BD9F70E943D014B015C0184E699
:100B3000C82ED12CE12CF12C0E943D0168197909B5
:100B40008A099B09683E734081059105A8F321E05D
:100B5000C21AD108E108F10888EE880E83E0981ED9
:100B6000A11CB11CC114D104E104F10429F7011541
:100B7000110509F424CF0E94CC01882309F41FCF6A
:100B80000E9400001CCF60E08DE00E94DE0061E06A
:100B90001FCF60E08BE00E94DE0061E025CFE3E73D
:100BA000F1E01382128288EE93E0A0E0B0E084834B
:100BB0009583A683B7838AE091E09183808385EC57
:100BC00090E09587848784EC90E09787868780EC17
:100BD00090E0918B808B81EC90E0938B828B82EC08
:100BE00090E0958B848B86EC90E0978B868B118EB2
:100BF000128E138E148E0895BB274A3031F4992338
:100C000022F4BDE2909581959F4F0C940806BB2776
:100C1000FB015527AA27880F991FAA1FA41710F0B8
:100C2000A41B83955051B9F7A05DAA3308F0A95DC4
:100C3000A193009779F7B111B1931192CB010C9464
:100C40002106DC01FC01672F71917723E1F73297D0
:100C500004C07C916D9370836291AE17BF07C8F397
:100C60000895F999FECF92BD81BDF89A992780B574
:100C70000895262FF999FECF1FBA92BD81BD20BDE0
:100C80000FB6F894FA9AF99A0FBE019608952F922A
:100C90003F924F925F926F927F928F929F92AF920C
:100CA000BF92CF92DF92EF92FF920F931F93CF9359
:100CB000DF93CDB7DEB7CA1BDB0B0FB6F894DEBFF0
:100CC0000FBECDBF09942A88398848885F846E8416
:100CD0007D848C849B84AA84B984C884DF80EE8060
:100CE000FD800C811B81AA81B981CE0FD11D0FB669
:100CF000F894DEBF0FBECDBFED010895EE0FFF1FCC
:100D00000590F491E02D09940F931F93CF93DF93F7
:100D10008230910510F482E090E0E0911202F091AF
:100D2000130230E020E0B0E0A0E0309799F4211504
:100D3000310509F44AC0281B390B24303105D8F598
:100D40008A819B816115710589F1FB0193838283FF
:100D5000FE0111C04081518102811381481759075A
:100D6000E0F04817590799F4109761F012960C9328
:100D7000129713961C933296CF01DF91CF911F915A
:100D80000F9108950093120210931302F4CF2115CE
:100D9000310551F04217530738F0A901DB019A01E0
:100DA000BD01DF01F801C1CFEF01F9CF909313022C
:100DB00080931202CDCFFE01E20FF31F8193919336
:100DC0002250310939832883D7CF209110023091E6
:100DD0001102232B41F42091020130910301309341
:100DE0001102209310022091000130910101211580
:100DF000310541F42DB73EB74091040150910501F2
:100E0000241B350BE0911002F0911102E217F30759
:100E1000A0F42E1B3F0B2817390778F0AC014E5F6A
:100E20005F4F2417350748F04E0F5F1F5093110294
:100E300040931002819391939FCFF0E0E0E09CCF2C
:100E4000CF93DF930097E9F0FC013297138212826F
:100E5000A0911202B0911302ED0130E020E0109752
:100E6000A1F420813181820F931F209110023091D3
:100E700011022817390709F061C0F0931102E093BD
:100E80001002DF91CF910895EA01CE17DF07E8F550
:100E90004A815B819E0141155105B1F7E901FB8350
:100EA000EA8349915991C40FD51FEC17FD0761F4EE
:100EB000808191810296840F951FE901998388832F
:100EC000828193819B838A83F0E0E0E012968D918A
:100ED0009C9113970097B9F52D913C911197CD01F5
:100EE0000296820F931F2091100230911102281751
:100EF000390739F6309751F5109213021092120209
:100F0000B0931102A0931002BCCFD383C28340815F
:100F10005181840F951FC817D90761F44E5F5F4F49
:100F200088819981480F591F518340838A819B8111
:100F3000938382832115310509F0B0CFF09313021A
:100F4000E09312029ECFFD01DC01C0CF138212821A
:100F5000D7CFB0E0A0E0EFEAF7E00C9449068C01AF
:100F6000009751F4CB010E9484068C01C801CDB7D3
:100F7000DEB7E0E10C946506FC01E60FF71F9C016B
:100F800022503109E217F30708F49DC0D901CD9131
:100F9000DC911197C617D70798F0C530D10530F30B
:100FA000CE0104978617970708F3C61BD70B229725
:100FB000C193D1936D937C93CF010E942007D6CF2C
:100FC0005B01AC1ABD0A4C018C0E9D1EA091120251
:100FD000B0911302512C412CF12CE12C109731F5DA
:100FE00080911002909111028815990509F05CC05A
:100FF0004616570608F058C08091000190910101F3
:10100000009741F48DB79EB74091040150910501BE
:10101000841B950BE817F90708F055C0F0931102EF
:10102000E0931002F90171836083A0CF8D919C91B0
:10103000119712966C90129713967C901397A8159F
:10104000B90559F56C0142E0C40ED11CCA14DB0489
:1010500020F1AC014A195B09DA011296159780F06C
:101060006282738251834083D9016D937C93E11432
:10107000F10471F0D7011396FC93EE93129776CF9B
:1010800022968C0F9D1FF90191838083F301EFCF8E
:10109000F0931302E093120269CF4816590608F440
:1010A0002C017D01D3019ACFCB010E9484067C01E3
:1010B000009749F0AE01B8010E946608C8010E947D
:1010C0002007870153CF10E000E050CFFB01DC0187
:1010D00002C001900D9241505040D8F70895FB0195
:1010E000DC0101900D920020E1F70895F894FFCF04
:1010F00000001402800000000000020262018F0163
:101100004F02C0019E01B2010D0A00496E63726573
:101110006D656E7420666972737442746E53746187
:1011200074653A2000496E6372656D656E74207354
:1011300065636F6E6442746E53746174653A200027
:10114000526573657420626F74682062746E5374A4
:06115000617465730000EC
:00000001FF
