:100000000C9462000C948A000C948A000C948A0070
:100010000C948A000C948A000C948A000C948A0038
:100020000C948A000C948A000C948A000C948A0028
:100030000C948A000C948A000C948A000C948A0018
:100040000C9485060C948A000C9416070C94F00608
:100050000C948A000C948A000C948A000C948A00F8
:100060000C948A000C948A000000000024002700F1
:100070002A0000000000250028002B0000000000DE
:1000800023002600290004040404040404040202DA
:100090000202020203030303030301020408102007
:1000A0004080010204081020010204081020000012
:1000B0000008000201000003040700000000000027
:1000C0000000E90611241FBECFEFD8E0DEBFCDBF90
:1000D00021E0ACE3B1E001C01D92AB3EB207E1F715
:1000E00011E0A0E0B1E0E2E4F3E102C005900D927E
:1000F000AC33B107D9F710E0C2E6D0E004C02197D5
:10010000FE010E94A707C136D107C9F70E94E00689
:100110000C949F090C94000008958330B1F060F0B6
:100120008730E9F0883009F1843021F5E0E8F0E02B
:1001300080818F7D80830895813069F0823021F441
:1001400084B58F7D84BD08950895E0E8F0E0808156
:100150008F778083089584B58F7784BD0895E0EB11
:10016000F0E080818F7780830895E0EBF0E080817C
:100170008F7D80830895CF93DF93282F30E0F9019E
:10018000E255FF4F8491F901E656FF4FD491F901F2
:10019000EA57FF4FC491CC23B1F081110EC0EC2F70
:1001A000F0E0EE0FFF1FE458FF4FA591B491EC91E2
:1001B000ED2331F490E080E008C00E948D00EFCF85
:1001C00081E090E002C090E080E0DF91CF9108955F
:1001D0001F93CF93DF93282F30E0F901E255FF4FB3
:1001E0008491F901E656FF4F1491F901EA57FF4F48
:1001F000C491CC23A9F0D62F811116C0EC2FF0E0CA
:10020000EE0FFF1FEE58FF4FA591B4918FB7F894F2
:10021000D1110DC09C91E12FE095E923EC938FBFA4
:10022000DF91CF911F9108950E948D00E7CFEC914F
:10023000E12BEC93F4CFCF93DF9390E0FC01E656F3
:10024000FF4F24918A579F4FFC018491882319F115
:1002500090E0880F991FFC01E859FF4FA591B491D8
:10026000FC01EE58FF4FC591D491662349F06230EE
:10027000A9F08FB7F894EC91E22BEC938FBF0BC0F1
:100280009FB7F8948C91E22FE0958E238C93888110
:10029000E823E8839FBFDF91CF9108959FB7F8943B
:1002A0003C91822F809583238C93E881E22BE88315
:1002B0009FBFF1CF1F93CF93DF93182FEB0161E026
:1002C0000E941B012097D9F0CF3FD10501F1E12F0A
:1002D000F0E0E255FF4FE491E33061F1E8F0E73000
:1002E000E9F1E83009F442C0E43071F1C038D105D9
:1002F0000CF444C061E0812F0E94E80004C060E07B
:10030000812F0E94E800DF91CF911F91089561E055
:10031000812F0E94E800F7CFE13039F0E23031F769
:1003200084B5806284BDC8BDEECF84B5806884BDCD
:10033000C7BDE9CFE0E8F0E0808180688083D0939A
:100340008900C0938800DFCFE0E8F0E08081806220
:100350008083D0938B00C0938A00D5CFE0EBF0E090
:10036000808180688083C093B300CDCFE0EBF0E064
:10037000808180628083C093B400C5CF60E0812F0C
:100380000E94E800C0CF789484B5826084BD84B5B3
:10039000816084BD85B5826085BD85B5816085BD80
:1003A000EEE6F0E0808181608083E1E8F0E0108299
:1003B000808182608083808181608083E0E8F0E0DA
:1003C000808181608083E1EBF0E0808184608083C4
:1003D000E0EBF0E0808181608083EAE7F0E08081FB
:1003E000846080838081826080838081816080835B
:1003F0008081806880831092C10008953FB7F8948F
:100400008091E3019091E401A091E501B091E601B2
:1004100026B5A89B05C02F3F19F00196A11DB11D5F
:100420003FBFBA2FA92F982F8827BC01CD01620F9B
:10043000711D811D911D660F771F881F991F660F03
:10044000771F881F991F08958F929F92AF92BF9236
:10045000CF92DF92EF92FF926B017C010E94FE012E
:100460004B015C011BC021E0C21AD108E108F10870
:1004700088EE880E83E0981EA11CB11CC114D10423
:10048000E104F10459F00E94FE01681979098A0912
:100490009B09683E73408105910528F7C114D1047A
:1004A000E104F10459F7FF90EF90DF90CF90BF90F7
:1004B000AF909F908F9008950895FC01248135811D
:1004C0006217730738F480819181009719F0860FC5
:1004D000971F08951092DD018DED91E00895DB01E5
:1004E00014964D915C9115976D917C91DC01ED9185
:1004F000FC910280F381E02D09950895CF92DF925F
:10050000EF92FF920F931F93CF93DF938C01DB0148
:10051000D0E0C0E07A0181E0E81AF108452BA1F0B3
:10052000F80180819181FC01208131816D01FFEF13
:10053000CF1ADF0A6C91C801F9010995892B21F0C6
:100540002196A701D601E6CFCE01DF91CF911F9171
:100550000F91FF90EF90DF90CF900895019709F0F1
:1005600008956F3F7F4FE1F7E0E4F1E013821282DC
:1005700088EE93E0A0E0B0E084839583A683B78300
:100580008AE091E09183808385EC90E09587848771
:1005900084EC90E09787868780EC90E0918B808B4D
:1005A00081EC90E0938B828B82EC90E0958B848B36
:1005B00086EC90E0978B868B118E128E138E148EA4
:1005C000CFCFFC01938D848D981720F4891B990B54
:1005D000019708952FE330E0291B3109820F932FF3
:1005E000911D0895FC01918D828D981761F0A28D67
:1005F000AE0FBF2FB11D5D968C91928D9F5F9F7343
:10060000928F90E008958FEF9FEF0895FC01918DF8
:10061000828D981731F0828DE80FF11D858D90E065
:1006200008958FEF9FEF0895FC01218D30E0205C4D
:100630003F4F828DA901481B5109CA018F73992729
:10064000089580E491E00E94140321E0892B09F4CD
:1006500020E0822F0895CF92DF92EF92FF921F93B6
:10066000CF93DF93EC016A017B01122F60E079E008
:100670008DE390E0A70196010E9485072150310982
:10068000410951095695479537952795E889F98984
:1006900082E08083C11481EED806E104F10421F0E8
:1006A000211580E1380798F0E889F989108260E81F
:1006B00074E88EE190E0A70196010E948507215021
:1006C0003109410951095695479537952795EC858C
:1006D000FD853083EE85FF852083188EEC89FD89AA
:1006E0001083EA89FB89808180618083EA89FB89A4
:1006F000808188608083EA89FB898081806880832B
:10070000EA89FB8980818F7D8083DF91CF911F9162
:10071000FF90EF90DF90CF900895FC01A48DA80F7B
:10072000B92FB11DA35ABF4F2C91848D90E0019633
:100730008F739078848FA689B7892C93A089B1890B
:100740008C91837080648C93938D848D981308951D
:100750000288F389E02D80818F7D8083F8CF0F930D
:100760001F93CF93DF93EC0181E0888F9B8D8C8D5D
:100770009817B1F0062F8B8D90E001968F739078CB
:10078000182F8C8D81131EC00FB607FCFACFE88995
:10079000F989808185FFF5CFCE010E948D03F1CFCD
:1007A000E889F989808185FFE5CF9FB7F894EE89C4
:1007B000FF896083E889F989808183708064808300
:1007C0009FBF10C0EB8DEC0FFD2FF11DE35AFF4FC3
:1007D00000839FB7F8941B8FEA89FB898081806230
:1007E00080839FBF81E090E0DF91CF911F910F91B7
:1007F0000895CF93DF93EC01888D811104C00DC063
:100800000FB607FE0DC0EA89FB89808185FDF8CF10
:10081000A889B9898C9186FFF3CFDF91CF91089594
:10082000808185FFF0CFE889F989808185FFEBCF52
:10083000CE010E948D03E7CF80E090E0892B21F06C
:100840000E942103811101C008950E940000FCCF85
:1008500061E083E00E941B0160E08DE00E941B01CB
:1008600060E08BE00E941B0160E089E00E941B01B8
:1008700026E040E855E260E070E080E491E00E940C
:100880002B0308956115710581F0FB010190002093
:10089000E9F73197AF01461B570BDC01ED91FC9155
:1008A0000280F381E02D0995089590E080E008959D
:1008B000DC01ED91FC910280F381E02D42E050E0FB
:1008C00068E171E0099508950F931F93CF93DF932B
:1008D000EC010E9442048C01CE010E945804800F5A
:1008E000911FDF91CF911F910F910895CF92DF92C9
:1008F000EF92FF921F93CF93DF936C01F12CE12CC9
:100900001FC06DE171E080E491E00E9442042197F4
:10091000DD239CF0812F012E000C990B0C2E02C0C0
:10092000959587950A94E2F780FFEBCF6BE171E034
:1009300080E491E00E944204EACF2FEFE21AF20A2B
:10094000F60184819581E816F90648F4B701C601DD
:100950000E945D02FC011081C7E0D0E0D9CF80E4A5
:1009600091E00E945804DF91CF911F91FF90EF908A
:10097000DF90CF9008950F931F93CF93DF93EC01F7
:100980008B016F5F7F4F888199810E94D208009709
:1009900051F0998388831B830A8381E0DF91CF9193
:1009A0001F910F91089580E0F9CFCF93DF93EC0171
:1009B00028813981232B29F02A813B81261737078B
:1009C00070F4CE010E94BB04882351F08C819D817C
:1009D000892B49F4E881F981108281E001C081E02E
:1009E000DF91CF91089581E0FBCFEF92FF920F93BB
:1009F0001F93CF93DF93FC01C481D581C40FD51F12
:100A00006115710501F1452B41F481E0DF91CF9132
:100A10001F910F91FF90EF9008957B018C01BE0113
:100A20000E94D504882391F3F801208131818481CB
:100A30009581B701820F931F0E949809F801D58311
:100A4000C48381E0E3CF80E0E1CFCF93DF93EC017B
:100A500088819981009711F00E94490819821882B3
:100A60001D821C821B821A82DF91CF910895CF9341
:100A7000DF93EC016115710561F0FB01019000202D
:100A8000E9F73197AF01461B570B0E94F50481111E
:100A900003C0CE010E942505CE01DF91CF910895BC
:100AA000EF92FF920F931F93CF93DF93EC017B01A3
:100AB0008A01BA010E94D504882379F01D830C8332
:100AC000B701888199810E949809CE01DF91CF9169
:100AD0001F910F91FF90EF900895CE010E94250580
:100AE000F4CFCF93DF93EC01FB018617970749F012
:100AF000608171816115710541F0448155810E94C9
:100B00005005CE01DF91CF9108950E942505F9CFC0
:100B1000FC011182108213821282158214820E94BB
:100B200071050895FC0111821082138212821582D0
:100B300014826115710551F0FB0101900020E9F765
:100B40003197AF01461B570B0E9450050895FC01D9
:100B500080819181009711F00E9449080895CF93F8
:100B6000DF93CDB7DEB762970FB6F894DEBF0FBE46
:100B7000CDBF8DE00E94BB000197A1F580913F01A0
:100B8000882341F160E083E00E94E80010923F0179
:100B900010923E018DE00E94BB00892BD9F780E4C2
:100BA00091E00E941403181619060CF481C080917C
:100BB0003E01811195C064E670E080E090E00E9403
:100BC000240262960FB6F894DEBF0FBECDBFDF9150
:100BD000CF91089561E083E00E94E80081E0809376
:100BE0003F01D6CF8BE00E94BB000197F1F46091EA
:100BF0003C0170913D016F3F7105A4F46D5C7F4F26
:100C000070933D0160933C0183E00E945A0181E0B2
:100C100080933F0110923E018BE00E94BB00892B24
:100C2000D9F7BDCF70E060E0EBCF89E00E94BB0058
:100C3000019709F0B4CF6FE171E0CE010D960E94EB
:100C40009205BE01635F7F4FCE0107960E94880523
:100C500069E271E0CE0107960E943705BC0180E48D
:100C600091E00E946F02CE0107960E94A7056AE1FB
:100C700071E080E491E00E946404BE01635F7F4FF5
:100C8000CE0101960E948805CE0101960E9476044D
:100C9000CE0101960E94A70510923E0189E00E94B4
:100CA000BB00892BD9F7CE010D960E94A70577CFFF
:100CB00080E491E00E94F2028D3461F0833509F006
:100CC00076CF10923F0110923E0160E083E00E94D7
:100CD000E8006DCF81E080933F0180933E0167CFB4
:100CE00061E083E00E94E8006CE271E080E090E067
:100CF0000E94240260E083E00E94E8006CE271E060
:100D000080E090E00E94240256CF1F920F920FB60F
:100D10000F9211240F931F932F933F934F935F9341
:100D20006F937F938F939F93AF93BF930091DF0156
:100D30001091E0012091E1013091E2019091DE01FA
:100D4000B901A8014F5F5F4F6F4F7F4F83E0890F5D
:100D50008D3740F086E8890FB901A8014E5F5F4FDB
:100D60006F4F7F4F8093DE014093DF015093E0018E
:100D70006093E1017093E2018091E3019091E401BD
:100D8000A091E501B091E6010196A11DB11D8093EE
:100D9000E3019093E401A093E501B093E601BF91D4
:100DA000AF919F918F917F916F915F914F913F9103
:100DB0002F911F910F910F900FBE0F901F901895BC
:100DC0000E94C3010E9428040E94AF050E941C04D7
:100DD000FBCF6FEF7FEF81E090E00E94AE020895BD
:100DE0001F920F920FB60F9211242F933F934F93A0
:100DF0005F936F937F938F939F93AF93BF93EF9383
:100E0000FF9380E491E00E948D03FF91EF91BF91E9
:100E1000AF919F918F917F916F915F914F913F9192
:100E20002F910F900FBE0F901F9018951F920F9249
:100E30000FB60F9211242F938F939F93AF93BF936D
:100E4000EF93FF93E0915001F0915101808182FD79
:100E500014C0E0E4F1E0A689B7892C91818D8F5F01
:100E60008F73928D891771F0DF01E18DF0E0E05C06
:100E7000FE4F258F59968C9305C0E0915601F09155
:100E800057018081FF91EF91BF91AF919F918F9119
:100E90002F910F900FBE0F901F9018952F923F9299
:100EA0004F925F926F927F928F929F92AF92BF927A
:100EB000CF92DF92EF92FF920F931F93CF93DF9326
:100EC000CDB7DEB7CA1BDB0B0FB6F894DEBF0FBE83
:100ED000CDBF09942A88398848885F846E847D84D0
:100EE0008C849B84AA84B984C884DF80EE80FD80D2
:100EF0000C811B81AA81B981CE0FD11D0FB6F89448
:100F0000DEBF0FBECDBFED010895A1E21A2EAA1BD0
:100F1000BB1BFD010DC0AA1FBB1FEE1FFF1FA217A9
:100F2000B307E407F50720F0A21BB30BE40BF50BA6
:100F3000661F771F881F991F1A9469F7609570952F
:100F4000809590959B01AC01BD01CF010895EE0FF6
:100F5000FF1F0590F491E02D09940F931F93CF93F9
:100F6000DF938230910510F482E090E0E091E90196
:100F7000F091EA0130E020E0B0E0A0E0309799F491
:100F80002115310509F44AC0281B390B24303105DD
:100F9000D8F58A819B816115710589F1FB019383E5
:100FA0008283FE0111C04081518102811381481763
:100FB0005907E0F04817590799F4109761F0129615
:100FC0000C93129713961C933296CF01DF91CF9119
:100FD0001F910F9108950093E9011093EA01F4CF56
:100FE0002115310551F04217530738F0A901DB01F3
:100FF0009A01BD01DF01F801C1CFEF01F9CF909354
:10100000EA018093E901CDCFFE01E20FF31F819346
:1010100091932250310939832883D7CF2091E7015A
:101020003091E801232B41F420910201309103011A
:101030003093E8012093E7012091000130910101F4
:101040002115310541F42DB73EB74091040150916F
:101050000501241B350BE091E701F091E801E2174F
:10106000F307A0F42E1B3F0B2817390778F0AC01CB
:101070004E5F5F4F2417350748F04E0F5F1F5093A8
:10108000E8014093E701819391939FCFF0E0E0E086
:101090009CCFCF93DF930097E9F0FC013297138246
:1010A0001282A091E901B091EA01ED0130E020E067
:1010B0001097A1F420813181820F931F2091E701C5
:1010C0003091E8012817390709F061C0F093E80171
:1010D000E093E701DF91CF910895EA01CE17DF0792
:1010E000E8F54A815B819E0141155105B1F7E9019F
:1010F000FB83EA8349915991C40FD51FEC17FD0773
:1011000061F4808191810296840F951FE901998392
:101110008883828193819B838A83F0E0E0E012964A
:101120008D919C9113970097B9F52D913C91119752
:10113000CD010296820F931F2091E7013091E801C3
:101140002817390739F6309751F51092EA011092B5
:10115000E901B093E801A093E701BCCFD383C28338
:1011600040815181840F951FC817D90761F44E5FE4
:101170005F4F88819981480F591F518340838A812D
:101180009B81938382832115310509F0B0CFF093C1
:10119000EA01E093E9019ECFFD01DC01C0CF13829B
:1011A0001282D7CFB0E0A0E0E8EDF8E00C94500751
:1011B0008C01009751F4CB010E94AD078C01C8014E
:1011C000CDB7DEB7E0E10C946C07FC01E60FF71F2A
:1011D0009C0122503109E217F30708F49DC0D901A0
:1011E000CD91DC911197C617D70798F0C530D1057E
:1011F00030F3CE0104978617970708F3C61BD70B69
:101200002297C193D1936D937C93CF010E9449089B
:10121000D6CF5B01AC1ABD0A4C018C0E9D1EA0916D
:10122000E901B091EA01512C412CF12CE12C1097ED
:1012300031F58091E7019091E8018815990509F051
:101240005CC04616570608F058C080910001909186
:101250000101009741F48DB79EB740910401509170
:101260000501841B950BE817F90708F055C0F093AA
:10127000E801E093E701F90171836083A0CF8D91CC
:101280009C91119712966C90129713967C901397DD
:10129000A815B90559F56C0142E0C40ED11CCA1459
:1012A000DB0420F1AC014A195B09DA0112961597AB
:1012B00080F06282738251834083D9016D937C9365
:1012C000E114F10471F0D7011396FC93EE93129799
:1012D00076CF22968C0F9D1FF90191838083F301B5
:1012E000EFCFF093EA01E093E90169CF4816590680
:1012F00008F42C017D01D3019ACFCB010E94AD07E8
:101300007C01009749F0AE01B8010E948F09C80125
:101310000E944908870153CF10E000E050CFFB0145
:10132000DC0102C001900D9241505040D8F7089561
:10133000FB01DC0101900D920020E1F70895F89483
:02134000FFCFDD
:101342000000EB01800000000000AF037E02E1021A
:10135200F9031403F20206030D0A003100300054AF
:101362007572756E7473657600204C656F6E696474
:0C1372002053657267656576696368004A
:00000001FF
