:100000000C9462000C948A000C948A000C948A0070
:100010000C948A000C948A000C948A000C948A0038
:100020000C948A000C948A000C948A000C948A0028
:100030000C948A000C948A000C948A000C948A0018
:100040000C94ED020C948A000C945D030C9437031D
:100050000C948A000C948A000C948A000C948A00F8
:100060000C948A000C948A000000000024002700F1
:100070002A000000000023002600290000000000E4
:10008000250028002B0004040404040404040202D4
:100090000202020203030303030301020408102007
:1000A0004080010204081020010204081020000012
:1000B0000008000201000003040700000000000027
:1000C0000000DA0511241FBECFEFD8E0DEBFCDBFA0
:1000D00021E0ACE3B1E001C01D92AB3EB207E1F715
:1000E00011E0A0E0B1E0E0E7F0E102C005900D9280
:1000F000AC33B107D9F710E0C2E6D0E004C02197D5
:10010000FE010E943E06C136D107C9F70E948F0347
:100110000C9436080C940000833081F028F4813070
:1001200099F08230A9F008958730A9F08830C9F09D
:100130008430B1F4809180008F7D03C08091800075
:100140008F7780938000089584B58F7784BD08955C
:1001500084B58F7DFBCF8091B0008F778093B00006
:1001600008958091B0008F7DF9CF1F93CF93DF93D7
:10017000E1EBF0E09491EDE9F0E0D491E9E8F0E012
:10018000C491CC23B9F0182F992319F0892F0E941C
:100190008C00EC2FF0E0EE0FFF1FE458FF4FA5910D
:1001A000B4918FB7F894EC91111108C0D095DE236B
:1001B000DC938FBFDF91CF911F910895DE2BF8CF95
:1001C000CF93DF93282F30E0F901E255FF4F849160
:1001D000F901E656FF4FD491F901EA57FF4FC49158
:1001E000CC23A1F081110E948C00EC2FF0E0EE0FE7
:1001F000FF1FEE58FF4FA591B491EC91ED2381E0E4
:1002000090E009F480E0DF91CF91089580E090E0E4
:10021000FACFCF93DF9390E0FC01E656FF4F249195
:100220008A579F4FFC0184918823D1F090E0880F7A
:10023000991FFC01E859FF4FA591B491FC01E458C6
:10024000FF4FC591D49161110EC09FB7F8948C9166
:10025000E22FE0958E238C932881E223E8839FBFD1
:10026000DF91CF9108958FB7F894EC91E22BEC9346
:100270008FBFF6CF3FB7F894809146019091470128
:10028000A0914801B091490126B5A89B05C02F3F18
:1002900019F00196A11DB11D3FBFBA2FA92F982FAC
:1002A0008827BC01CD01620F711D811D911D42E0A7
:1002B000660F771F881F991F4A95D1F708958F926F
:1002C0009F92AF92BF92CF92DF92EF92FF924B013B
:1002D0005C010E943A016B017C010E943A016C1999
:1002E0007D098E099F09683E734081059105A8F339
:1002F00021E0821A9108A108B10888EEC80E83E0B7
:10030000D81EE11CF11C81149104A104B10429F749
:10031000FF90EF90DF90CF90BF90AF909F908F9025
:100320000895AF92BF92CF92DF92EF92FF920F9318
:100330001F93CF93DF936C017B018B01040F151F7B
:10034000EB015E01AE18BF08C017D10759F06991E3
:10035000D601ED91FC910190F081E02DC601099547
:10036000892B79F7C501DF91CF911F910F91FF90F4
:10037000EF90DF90CF90BF90AF900895FC01538D28
:10038000448D252F30E0842F90E0821B930B54176F
:1003900010F0CF96089501970895FC01918D828DFC
:1003A000981761F0A28DAE0FBF2FB11D5D968C9195
:1003B000928D9F5F9F73928F90E008958FEF9FEFD4
:1003C0000895FC01918D828D981731F0828DE80F90
:1003D000F11D858D90E008958FEF9FEF0895FC014A
:1003E000918D228D892F90E0805C9F4F821B910917
:1003F0008F73992708958AE491E00E94EF0121E02C
:10040000892B09F420E0822F089580E090E0892B69
:1004100029F00E94FB0181110C9400000895FC0159
:10042000A48DA80FB92FB11DA35ABF4F2C91848D55
:1004300090E001968F739927848FA689B7892C93B2
:10044000A089B1898C91837080648C93938D848D05
:10045000981306C00288F389E02D80818F7D808308
:100460000895EF92FF920F931F93CF93DF93EC01C8
:1004700081E0888F9B8D8C8D98131AC0E889F9894B
:10048000808185FF15C09FB7F894EE89FF8960834E
:10049000E889F98980818370806480839FBF81E0CF
:1004A00090E0DF91CF911F910F91FF90EF90089511
:1004B000F62E0B8D10E00F5F1F4F0F731127E02EEC
:1004C0008C8D8E110CC00FB607FCFACFE889F98924
:1004D000808185FFF5CFCE010E940F02F1CFEB8D19
:1004E000EC0FFD2FF11DE35AFF4FF0829FB7F894F8
:1004F0000B8FEA89FB8980818062CFCFCF93DF9316
:10050000EC01888D8823B9F0AA89BB89E889F9892B
:100510008C9185FD03C0808186FD0DC00FB607FC60
:10052000F7CF8C9185FFF2CF808185FFEDCFCE0193
:100530000E940F02E9CFDF91CF910895FC01019055
:100540000020E9F73197AF01481B590BBC018AE441
:1005500091E00C949101CF93DF93EC018881998114
:10056000009711F00E94E006198218821D821C82F9
:100570001B821A82DF91CF910895FC0180819181C5
:10058000009711F00C94E00608950F931F93CF93FA
:10059000DF93EC0188819981009759F02A813B8192
:1005A0002617370730F081E0DF91CF911F910F912F
:1005B00008958B016F5F7F4F0E946907009759F084
:1005C000998388831B830A832C813D81232B59F7D0
:1005D000FC011082E8CF80E0E7CF1F920F920FB6A8
:1005E0000F9211242F933F938F939F93AF93BF93B9
:1005F0008091420190914301A0914401B091450145
:100600003091410123E0230F2D3758F50196A11DAC
:10061000B11D209341018093420190934301A09327
:100620004401B09345018091460190914701A0910A
:100630004801B09149010196A11DB11D8093460169
:1006400090934701A0934801B0934901BF91AF91A6
:100650009F918F913F912F910F900FBE0F901F9000
:10066000189526E8230F0296A11DB11DD2CF1F9227
:100670000F920FB60F9211242F933F934F935F93D6
:100680006F937F938F939F93AF93BF93EF93FF935A
:100690008AE491E00E940F02FF91EF91BF91AF9128
:1006A0009F918F917F916F915F914F913F912F918A
:1006B0000F900FBE0F901F9018951F920F920FB6BC
:1006C0000F9211242F938F939F93EF93FF93E091B9
:1006D0005A01F0915B018081E0916001F09161012C
:1006E00082FD1BC09081809163018F5F8F73209189
:1006F0006401821741F0E0916301F0E0E65BFE4F98
:10070000958F80936301FF91EF919F918F912F912E
:100710000F900FBE0F901F9018958081F4CFCF934C
:10072000DF93CDB7DEB72C970FB6F894DEBF0FBEC0
:10073000CDBF789484B5826084BD84B5816084BD6A
:1007400085B5826085BD85B5816085BD80916E006F
:10075000816080936E0010928100809181008260A0
:1007600080938100809181008160809381008091DD
:1007700080008160809380008091B10084608093CC
:10078000B1008091B00081608093B00080917A00C8
:10079000846080937A0080917A00826080937A00EE
:1007A00080917A00816080937A0080917A008068DD
:1007B00080937A001092C10061E083E00E940901F9
:1007C00060E08DE00E94090160E08BE00E94090179
:1007D00060E089E00E940901E0915A01F0915B011B
:1007E00082E08083E0915601F09157011082E09100
:1007F0005801F09159018FEC808310926201E091D1
:100800005E01F0915F0186E08083E0915C01F091F0
:100810005D01808180618083E0915C01F0915D01E8
:10082000808188608083E0915C01F0915D0180812E
:1008300080688083E0915C01F0915D0180818F7D13
:10084000808391EBE92E90E0F92E20E0C22E20E08B
:10085000D22E8DE00E94E0000197F1F480914001DA
:10086000882399F080E00E94B50010924001109218
:100870003F018DE00E94E000892BD9F768EC70E021
:1008800080E090E00E945F0158C181E00E94B500C5
:1008900081E080934001EBCF8BE00E94E000019764
:1008A00009F06BC000913D0110913E010F3F110511
:1008B000DCF40D5C1F4F10933E0100933D0161E09D
:1008C00083E00E9409010115110589F480E00E946E
:1008D000B50081E08093400110923F018BE00E94BF
:1008E000E000892BD9F7CACF10E000E0E4CF0F3F3A
:1008F000110511F481E0EBCFF7018491833019F1F8
:1009000040F48130B1F08230C9F00038110594F71D
:10091000DDCF873011F1883041F18430B1F780911B
:10092000800080628093800010938B0000938A0087
:10093000D0CF84B5806884BD07BDCBCF84B580623D
:1009400084BD08BDC6CF8091800080688093800000
:100950001093890000938800BCCF8091B00080681C
:100960008093B0000093B300B4CF8091B000806258
:100970008093B0000093B400ACCF89E00E94E00007
:10098000019709F0E6C018861F821A8619861C8610
:100990001B8669E070E0CE0107960E94C5028111B6
:1009A0008DC0CE0107960E94AB021A8219821C826A
:1009B0001B821E821D820F8118850115110569F0A9
:1009C000AB84BC84B501CE0101960E94C5028111A1
:1009D00080C0CE0101960E94AB020D811E810E5E89
:1009E0001F4FB801CE0101960E94C502882309F469
:1009F00078C029813A818D819E8162E271E0820F07
:100A0000931F0E942F081E830D834D815E81698193
:100A10007A818AE491E00E949101CE0101960E94C0
:100A2000BD0287E391E00E949E0285E391E00E946F
:100A30009E021A8219821C821B821E821D820F81D5
:100A400018850115110509F45FC0AB84BC84B5019C
:100A5000CE0101960E94C502811148C0CE010196C7
:100A60000E94AB0210E000E08D819E8108171907FB
:100A700008F04AC0E981FA81309709F03FC010922E
:100A80003C01ECE3F1E0808087E0A82EB12C082C3B
:100A9000000C9908C4010A2C02C0959587950A9408
:100AA000E2F780FF2EC088E391E00E949E02F1E011
:100AB000AF1AB10878F70F5F1F4FD6CF89E090E0EB
:100AC0009C878B8768E171E08F8198850E942F0851
:100AD0006CCFBE82AD82B80189819A810E942F08B5
:100AE0007CCFCE0101960E94AB028FCFBE82AD8239
:100AF000B80189819A810E942F08B4CFE00FF11FBD
:100B0000C2CF8AE391E0D1CF85E391E00E949E02BB
:100B1000CE0101960E94BD0210923F0189E00E9421
:100B2000E000892BD9F768EC70E080E090E00E944B
:100B30005F01CE0107960E94BD02C114D10409F4E1
:100B400088CE0E94FB01882309F483CE0E94000016
:100B500080CE8AE491E00E94EF01181619065CF439
:100B60008AE491E00E94CD018D34D1F481E080933C
:100B7000400180933F0180913F018823F1F281E0A1
:100B80000E94B5006CE271E080E090E00E945F019D
:100B900080E00E94B5006CE271E080E090E072CEEF
:100BA000833549F71092400110923F0180E00E9486
:100BB000B500E1CFEAE4F1E01382128288EE93E01F
:100BC000A0E0B0E084839583A683B7838AE091E0B8
:100BD0009183808385EC90E09587848784EC90E016
:100BE0009787868780EC90E0918B808B81EC90E0FA
:100BF000938B828B82EC90E0958B848B86EC90E0DB
:100C0000978B868B118E128E138E148E08952F92D1
:100C10003F924F925F926F927F928F929F92AF928C
:100C2000BF92CF92DF92EF92FF920F931F93CF93D9
:100C3000DF93CDB7DEB7CA1BDB0B0FB6F894DEBF70
:100C40000FBECDBF09942A88398848885F846E8496
:100C50007D848C849B84AA84B984C884DF80EE80E0
:100C6000FD800C811B81AA81B981CE0FD11D0FB6E9
:100C7000F894DEBF0FBECDBFED010895EE0FFF1F4C
:100C80000590F491E02D09940F931F93CF93DF9378
:100C90008230910510F482E090E0E091E901F0915A
:100CA000EA0130E020E0B0E0A0E0309799F42115AF
:100CB000310509F44AC0281B390B24303105D8F519
:100CC0008A819B816115710589F1FB019383828380
:100CD000FE0111C0408151810281138148175907DB
:100CE000E0F04817590799F4109761F012960C93A9
:100CF000129713961C933296CF01DF91CF911F91DB
:100D00000F9108950093E9011093EA01F4CF2115A2
:100D1000310551F04217530738F0A901DB019A0160
:100D2000BD01DF01F801C1CFEF01F9CF9093EA01D6
:100D30008093E901CDCFFE01E20FF31F81939193E0
:100D40002250310939832883D7CF2091E701309190
:100D5000E801232B41F420910201309103013093EB
:100D6000E8012093E7012091000130910101211554
:100D7000310541F42DB73EB7409104015091050172
:100D8000241B350BE091E701F091E801E217F3072E
:100D9000A0F42E1B3F0B2817390778F0AC014E5FEB
:100DA0005F4F2417350748F04E0F5F1F5093E8013F
:100DB0004093E701819391939FCFF0E0E0E09CCFD7
:100DC000CF93DF930097E9F0FC01329713821282F0
:100DD000A091E901B091EA01ED0130E020E0109727
:100DE000A1F420813181820F931F2091E70130917E
:100DF000E8012817390709F061C0F093E801E09392
:100E0000E701DF91CF910895EA01CE17DF07E8F5FA
:100E10004A815B819E0141155105B1F7E901FB83D0
:100E2000EA8349915991C40FD51FEC17FD0761F46E
:100E3000808191810296840F951FE90199838883AF
:100E4000828193819B838A83F0E0E0E012968D910A
:100E50009C9113970097B9F52D913C911197CD0175
:100E60000296820F931F2091E7013091E801281725
:100E7000390739F6309751F51092EA011092E901DD
:100E8000B093E801A093E701BCCFD383C283408134
:100E90005181840F951FC817D90761F44E5F5F4FCA
:100EA00088819981480F591F518340838A819B8192
:100EB000938382832115310509F0B0CFF093EA01C5
:100EC000E093E9019ECFFD01DC01C0CF13821282C5
:100ED000D7CFB0E0A0E0EFE6F7E00C9409068C0174
:100EE000009751F4CB010E9444068C01C801CDB794
:100EF000DEB7E0E10C942506FC01E60FF71F9C012C
:100F000022503109E217F30708F49DC0D901CD91B1
:100F1000DC911197C617D70798F0C530D10530F38B
:100F2000CE0104978617970708F3C61BD70B2297A5
:100F3000C193D1936D937C93CF010E94E006D6CFED
:100F40005B01AC1ABD0A4C018C0E9D1EA091E901FB
:100F5000B091EA01512C412CF12CE12C109731F584
:100F60008091E7019091E8018815990509F05CC02E
:100F70004616570608F058C0809100019091010173
:100F8000009741F48DB79EB740910401509105013F
:100F9000841B950BE817F90708F055C0F093E8019A
:100FA000E093E701F90171836083A0CF8D919C915B
:100FB000119712966C90129713967C901397A81520
:100FC000B90559F56C0142E0C40ED11CCA14DB040A
:100FD00020F1AC014A195B09DA011296159780F0ED
:100FE0006282738251834083D9016D937C93E114B3
:100FF000F10471F0D7011396FC93EE93129776CF1C
:1010000022968C0F9D1FF90191838083F301EFCF0E
:10101000F093EA01E093E90169CF4816590608F414
:101020002C017D01D3019ACFCB010E9444067C01A3
:10103000009749F0AE01B8010E942608C8010E943D
:10104000E006870153CF10E000E050CFFB01DC0148
:1010500002C001900D9241505040D8F70895FB0115
:10106000DC0101900D920020E1F70895F894FFCF84
:101070000000EB0180000000000031029101BE0180
:101080007E02EF01CD01E101547572756E747365D6
:101090007600204C656F6E696420536572676565E4
:0C10A00076696368000D0A003100300022
:00000001FF
